:020000040800F2
:10000000300500209D0100088D18000885180008A3
:1000100089180008851700083F410008000000000B
:100020000000000000000000000000002135000872
:100030008917000800000000D3010008D50100085E
:10004000D7010008D7010008D7010008D701000830
:10005000D7010008D7010008D7010008D701000820
:10006000D7010008D7010008D7010008D701000810
:10007000D7010008D7010008D7010008D701000800
:10008000D7010008D7010008D7010008D7010008F0
:10009000D7010008D7010008D7010008D7010008E0
:1000A000D7010008D7010008D7010008D7010008D0
:1000B000D7010008D7010008D7010008D7010008C0
:1000C000D7010008D7010008D7010008D7010008B0
:1000D000D7010008693E0008D7010008D7010008D1
:1000E000D7010008D7010008D7010008D701000890
:1000F000D7010008D7010008D7010008D701000880
:10010000D7010008D7010008D7010008D70100086F
:10011000D7010008D7010008D7010008C53700083B
:10012000D7010008D7010008D7010008D70100084F
:10013000D7010008D7010008D7010008D70100083F
:10014000D7010008D7010008D7010008D70100082F
:10015000D7010008D7010008D7010008D70100081F
:10016000D7010008D7010008D7010008D70100080F
:10017000D7010008D7010008D7010008D7010008FF
:10018000D7010008D7010008DFF80CD000F0D8FA3A
:1001900000480047ED4D000830050020DFF838002A
:1001A000016841F470010160BFF34F8FDFF82C004C
:1001B000016821F040410160BFF36F8F084880471C
:1001C00008480047FEE7FEE7FEE7FEE7FEE7FEE73A
:1001D000FEE7FEE7FEE7FEE788ED00E034EF00E033
:1001E00039360008890100082DE9FE4F804681EA72
:1001F0000300C00F0C46009021F0004123F00045A1
:10020000B8EB0200A94105D24046214690461C4663
:100210000B46024623F00040104347D0270DC7F39A
:100220000A00C3F30A510290401A019040286BDA89
:10023000C3F3130040F4801B0098924620B10023C2
:10024000D2EB030A63EB0B0B01985946C0F1400255
:10025000504600F0B0F906460D4650465946019A00
:1002600000F0C8F910EB08006141002487EA115240
:1002700084EAE7731A4340D0009A62B3019A012AD4
:100280004FEA075215DC001B61EB02014FF0004200
:1002900002EA0752CDE90042001C41F580113246C6
:1002A0002B4600F0FFF903B0BDE8F08F4046214631
:1002B000F9E7001B61EB0201001C41F580130018F7
:1002C0005B412018A2F5001747EB030140EAD57007
:1002D000B6196D4111E06D084FEA360645EAC07562
:1002E0004FEA0752001B61EB0201001C41F580112F
:1002F00049084FEA30000019514132462B4603B0FD
:10030000BDE8F04F00F0BFB9009801224000002383
:10031000D0EB020263EBE073009821464FEAE074F1
:10032000B8EB000061EB0401E9E783F000435BE711
:1003300081F0004158E72DE9FE4F81EA030404F003
:10034000004421F0004100944FF0000B23F00043E3
:1003500050EA01045ED052EA03045BD0C3F30A54AE
:10036000C1F30A552C44A4F2F3340194A0FB0254C7
:10037000C1F3130141F48011C3F3130343F4801359
:1003800001FB024400FB034E840A970A44EA8154AD
:1003900047EA8357A4FB076802958D0A05FB07858A
:1003A0004FEA932C04FB0C542705029D4FEA065894
:1003B00047EA1637B5EB08056EEB070C870E920E71
:1003C00047EA811742EA8312A7FB0201B6EB0B0151
:1003D00064EB00042B0D43EA0C335E1844EB1C5015
:1003E000DA465146E7FB0201C5F313044FEA0B332B
:1003F00043EA14534FEA0432019C43EA0603A4F192
:100400000C040294009CCDE900B400F04BF903B059
:10041000BDE8F08F00200146F9E72DE9F04D81EAB3
:10042000030404F0004B21F0004514464FF0000A8D
:1004300023F0004150EA050220D054EA01021DD009
:10044000C5F30A570246C5F31303C1F31300C1F302
:100450000A5640F4801543F48013A7EB0608101BDE
:10046000D64608F2FD3873EB050002D308F1010807
:1004700001E092185B41B8F1000F03DA0020014659
:10048000BDE8F08D00204FF48011064684460EE052
:10049000171B73EB050705D3121B63EB050306431C
:1004A0004CEA010C49084FEA300092185B4150EACF
:1004B0000107EDD152EA030012D082EA040083EA78
:1004C0000501084305D0101BAB4106D201220023D1
:1004D00006E000224FF0004302E06FF001025310EB
:1004E0001AEB06004CEB085110EB0A0041EB0B0134
:1004F000BDE8F04D00F0C7B80EB5C10F80EAE0705E
:100500000844CA07002140F233438DE80E000A4632
:100510000B4600F0C7F803B000BD70B5C1F30A5236
:1005200001F000450024C1F3130140F2FF3341F410
:1005300080119A4201DA002070BD40F233439A42A2
:10054000A2F2334203DC524200F044F800E0904053
:100550002C43F1D0404270BD00F0004230F000402A
:100560000AD0C10D01F56071C0F3160042EA0151D5
:10057000C20840071143704700200146704701F050
:10058000004330B421F0004150EA010206D00A0DC8
:10059000A2F56072C1F31301002A02DC30BC002016
:1005A0007047440F44EAC104C100E01830BC00EBBE
:1005B000C25000F031B8202A04DB203A00FA02F1E0
:1005C000002070479140C2F1200320FA03F3194341
:1005D00090407047202A04DB203A21FA02F00021E3
:1005E000704721FA02F3D040C2F120029140084343
:1005F00019467047202A06DBCB17203A41FA02F051
:1006000043EAE07306E041FA02F3D040C2F120026F
:1006100091400843194670470029A8BF7047401C05
:10062000490008BF20F00100704710B4B0FA80FC08
:1006300000FA0CF050EA010404BF10BC704749B145
:10064000CCF1200421FA04F411FA0CF118BF0121B5
:1006500021430843A3EB0C01CB1D4FEA00614FEA95
:10066000102042BF002010BC704700EBC350104464
:100670000029A4BF10BC7047401C490008BF20F0EF
:10068000010010BC704710B5141E73F1000408DAA5
:10069000401C41F1000192185B411A4301D120F046
:1006A000010010BD2DE9F04D92469B4611B1B1FA03
:1006B00081F202E0B0FA80F220329046FFF77BFF31
:1006C00004460F4640EA0A0041EA0B0153465A46E7
:1006D000084313D0114653EA010019D0C8F1400273
:1006E0005046FFF777FF05460E46504659464246AC
:1006F000FFF761FF084305D0012004E0204639469A
:10070000BDE8F08D0020054346EAE0762C433743F0
:100710000A986305E40AA0EB08000022FD0A44EAF7
:1007200047540A3002D500200146E9E701051019B7
:100730006941DDE9084500196941BDE8F04DA2E7CE
:10074000064C074D06E0E06840F0010394E807001E
:1007500098471034AC42F6D3FFF71AFD3850000822
:10076000585000080EB540F2334102910021CDE906
:1007700000110A460B46FFF795FF03B000BD0000CD
:100780001CB50121102001F003F902200090012086
:100790008DF8040000208DF8060003208DF8050078
:1007A00001208DF807006946034800F0EEFF0221A2
:1007B000014801F05EF81CBD0010024010B56FF05A
:1007C000040002F025FF10BD0146C1EBC10202EB9F
:1007D00042024FF0E0235A6100229A611A461269E0
:1007E00042F001021A6100BF4FF0E022106900F0F0
:1007F00001021AB100F48032002AF5D04FF0E02255
:10080000126922F001024FF0E0231A6100229A617E
:1008100070474FF08040406A80B2704700B589B0A1
:100820000121084601F0B4F80121022001F0B0F8DE
:100830000121084601F0BCF801220F21294800F0EF
:10084000ECFF01220321284800F0E7FF4FF40040AD
:10085000079002208DF8200003208DF82100002051
:100860008DF8220001208DF8230007A91D4800F013
:100870008CFF0820079007A91B4800F086FF4FF067
:10088000804002F0DFFF04A803F0E4FA0020ADF896
:1008900010004FF6FF7005900020ADF81800ADF87D
:1008A000120004A94FF0804003F092FA00231A4688
:1008B00003214FF0804003F08DF801A803F0F3F816
:1008C0000620ADF80C0001A94FF0804003F0B4F809
:1008D00000204FF0804148620121880702F096FF16
:1008E00009B000BD00000240000402404FF080410A
:1008F000486270470148006880B270472404004095
:1009000000B589B00121022001F042F80121022046
:1009100001F04EF802220421244800F07EFF02225A
:100920000521224800F079FF3020079002208DF841
:10093000200003208DF8210000208DF822000120E6
:100940008DF8230007A9194800F01FFF184802F08E
:1009500079FF04A803F07EFA0020ADF810004FF6EE
:10096000FF7005900020ADF81800ADF8120004A942
:100970000F4803F02DFA00231A4603210C4803F018
:1009800029F801A803F08FF80620ADF80C0001A9A2
:10099000074803F051F8002005492431086001217F
:1009A000034802F033FF09B000BD0000000402401C
:1009B0000004004001490860704700002404004022
:1009C0000148006880B27047240C004000B589B02F
:1009D0000121084600F0DCFF0121082000F0E8FFBB
:1009E00002220021244800F018FF0222012122489F
:1009F00000F013FF0320079002208DF82000032051
:100A00008DF8210000208DF8220001208DF82300B0
:100A100007A9194800F0B9FE184802F013FF04A80E
:100A200003F018FA0020ADF810004FF6FF700590A3
:100A30000020ADF81800ADF8120004A90F4803F02B
:100A4000C7F900231A4603210C4802F0C3FF01A88E
:100A500003F029F80620ADF80C0001A9074802F0C0
:100A6000EBFF00200549243108600121034802F012
:100A7000CDFE09B000BD000000000240000C0040A7
:100A80000149086070470000240C004001480068DC
:100A900080B270472408004000B589B001210820C9
:100AA00000F076FF0121042000F082FF02220C21D9
:100AB000244800F0B2FE02220D21224800F0ADFED3
:100AC0004FF44050079002208DF8200003208DF84D
:100AD000210000208DF8220001208DF8230007A9B5
:100AE000184800F052FE184802F0ACFE04A803F0CB
:100AF000B1F90020ADF810004FF6FF70059000200E
:100B0000ADF81800ADF8120004A90F4803F060F921
:100B100000231A4603210C4802F05CFF01A802F0F2
:100B2000C2FF0620ADF80C0001A9074802F084FFBF
:100B300000200549243108600121034802F066FEC7
:100B400009B000BD000C02400008004001490860E7
:100B500070470000240800401CB50121082000F067
:100B600017FF0820009001208DF8040000208DF868
:100B7000060003208DF8050001208DF80700694666
:100B8000084800F002FE0821064800F074FE10201C
:100B900000906946034800F0F8FD1021014800F07C
:100BA0006AFE1CBD000C024000B58BB00121102074
:100BB00000F0EEFE0121084600F01AFF0122092193
:100BC000354800F02AFE01220B21334800F025FEB3
:100BD00001220D21304800F020FE01220E212E4876
:100BE00000F01BFE4FF4D440099002208DF828003D
:100BF00003208DF8290000208DF82A0001208DF8AF
:100C00002B0009A9244800F0C0FD41F267000790BD
:100C10000120ADF818000020ADF81A00ADF8200052
:100C200006A91E4803F0D4F86020ADF804000120A6
:100C3000ADF8060000200390ADF8100001A9174898
:100C400002F044FF0821154802F07EFF01A9134875
:100C500002F084FF0821114802F0D2FF01A90F48D9
:100C600002F0DCFF08210D4803F028F801A90B4829
:100C700003F02EF80821094803F066F8012107481F
:100C800002F0B2FD0121054802F0C0FD0121034838
:100C900002F0C8FD0BB000BD001002400000014092
:100CA00070B505462C4641F26800844200DD0446DA
:100CB0000E48844200DA0446002C0BDD41F2680144
:100CC0000B4803F04EF841F26800011B084803F09E
:100CD0004AF80AE041F26801054803F044F841F29D
:100CE00068002118024803F03CF870BD98EFFFFF40
:100CF0000000014070B505462C4641F26800844270
:100D000000DD04460E48844200DA0446002C0BDD68
:100D100041F268010B4803F028F841F26800011B1A
:100D2000084803F024F80AE041F26801054803F09E
:100D30001EF841F268002118024803F016F870BD51
:100D400098EFFFFF0000014000B58BB0012110209B
:100D500000F01EFE0121080400F04AFE03220521D6
:100D6000504800F05AFD032206214E4800F055FD80
:100D70006020099002208DF8280003208DF82900BA
:100D800000208DF82A0001208DF82B0009A9454884
:100D900000F0FBFC41F2670007900120ADF818005D
:100DA0000020ADF81A00ADF8200006A93E4803F077
:100DB0000FF86020ADF804000120ADF80600002017
:100DC0000390ADF8100001A9374802F07FFE08211A
:100DD000354802F0B9FE01A9334802F0BFFE0821F0
:100DE000314802F00DFF01212F4802F0FDFC0121E6
:100DF0002D4802F00BFD0121022000F0C9FD012168
:100E0000402000F0D5FD09220E21284800F005FD04
:100E100009220F21254800F000FD4FF440400990C1
:100E200002208DF8280003208DF8290000208DF87D
:100E30002A0001208DF82B0009A91C4800F0A5FC10
:100E400041F2670007900020ADF81800ADF81A00D5
:100E5000ADF8200006A9164802F0BAFF6020ADF8F0
:100E600004000120ADF8060000200390ADF810004A
:100E700001A90F4802F02AFE08210D4802F064FE85
:100E800001A90B4802F06AFE0821094802F0B8FEE9
:100E90000121074802F0A8FC0121054802F0B6FC38
:100EA0000BB000BD001002400040014000040240B1
:100EB0000018004070B505462C4641F26800844297
:100EC00000DD04460E48844200DA0446002C0BDDA7
:100ED00041F268010B4802F044FF41F26800011B37
:100EE000084802F040FF0AE041F26801054802F0BC
:100EF0003AFF41F268002118024802F032FF70BD4B
:100F000098EFFFFF0040014070B505462C4641F2C6
:100F10006800844200DD04460E48844200DA04463C
:100F2000002C0BDD41F268010B4802F01AFF41F280
:100F30006800011B084802F016FF0AE041F2680150
:100F4000054802F010FF41F268002118024802F043
:100F500008FF70BD98EFFFFF001800401CB501218D
:100F6000102000F015FD4FF48050009000208DF807
:100F7000040003208DF8050002208DF80700694663
:100F80001F4800F002FC4FF48060009001208DF8B3
:100F9000040000208DF8060003208DF805000120D4
:100FA0008DF807006946164800F0EFFB4FF480709B
:100FB000009001208DF8040000208DF80600032029
:100FC0008DF8050001208DF8070069460C4800F0F7
:100FD000DCFB8020009001208DF8040000208DF8BB
:100FE000060003208DF8050001208DF807006946F2
:100FF000034800F0CAFB0120024908601CBD000044
:1010000000100240A002424270B50446002014497C
:101010000860002507E01349485D00F07FFC124995
:101020004855681CC5B2092DF5DB01200C49086044
:101030000D48407820700C48C078C04360700A4862
:101040000079C043A07008484079E0700648807974
:1010500020710548C07960710348007AA07170BDA5
:10106000A00242426C4E00082001002010B5124838
:10107000007820B900201149C880088148811048B3
:101080000078062813D2DFE800F0120306090C0FDF
:1010900001F058FA0EE000F093FF0BE002F090F838
:1010A00008E000F039FD05E001F06CFD02E000F021
:1010B00009F800BF00BF10BD0D000020680000202F
:1010C0000C00002010B50020FFF7EAFD0020FFF71C
:1010D00011FE0020FFF7EEFE0020FFF715FF10BD08
:1010E00000B58BB00121022000F052FC0121480420
:1010F00000F07EFC03220821214800F08EFB022034
:101100008DF8280000208DF82A004FF48070099097
:1011100001208DF82B0003208DF8290009A918481B
:1011200000F033FBA720ADF818000020ADF81A003E
:101130008DF8220044F61F6007900020ADF82000D3
:1011400006A9104802F044FE6020ADF8040001201A
:10115000ADF8060000200390ADF8100001A9094881
:1011600002F0B4FC0821074802F0EEFC012105481A
:1011700002F03AFB0121034802F048FB0BB000BD2E
:10118000000402400044014010B50446B4F5617FFC
:1011900001DD4FF4617414F5617F00DA094C00EE53
:1011A000104AF8EEC00A9FED080A9FED081A01EEFA
:1011B000200ABCEEC00A10EE101A054802F0D1FD5C
:1011C00010BD00007CFCFFFF0080BB443F358E3F1C
:1011D0000044014000B58BB00121022000F0D8FB93
:1011E0000121880400F004FC03220921214800F0B9
:1011F00014FB02208DF8280000208DF82A004FF4FF
:101200000070099001208DF82B0003208DF8290033
:1012100009A9184800F0B9FAA720ADF81800002075
:10122000ADF81A008DF8220044F61F6007900020E8
:10123000ADF8200006A9104802F0CAFD6020ADF804
:1012400004000120ADF8060000200390ADF8100066
:1012500001A9094802F03AFC0821074802F074FC91
:101260000121054802F0C0FA0121034802F0CEFA3C
:101270000BB000BD000402400048014010B5044618
:10128000B4F5617F01DD4FF4617414F5617F00DA1C
:10129000094C00EE104AF8EEC00A9FED080A9FEDD7
:1012A000081A01EE200ABCEEC00A10EE101A05481A
:1012B00002F057FD10BD00007CFCFFFF0080BB4426
:1012C0003F358E3F0048014030EE601A264880EDE1
:1012D000001A2648B0F9000001EE100AB8EEC11A53
:1012E0002148D0ED001A21EE211AD0ED001A204835
:1012F00090ED002A31EEC22A1E48B0F9000001EE3E
:10130000900AF8EEE11A01EE821A1B48B0F90000CB
:1013100001EE900AF8EEE11A31EE211ABDEEC11A83
:1013200011EE100A00B2144908800F4890ED001A1F
:101330000F4880ED001A0846B0F9000041F268013C
:10134000884202DD08460C4908800B48B0F90000CD
:101350000A49884203DA4EF6987007490880064821
:10136000B0F90000704700002000002008000020B5
:10137000240000200A0000201C00002098EFFFFF3E
:1013800030EE601A264880ED001A2648B0F90000B9
:1013900001EE100AB8EEC11A2148D0ED001A21EE74
:1013A000211AD0ED001A204890ED002A31EEC22A11
:1013B0001E48B0F9000001EE900AF8EEE11A01EEC5
:1013C000821A1B48B0F9000001EE900AF8EEE11A0B
:1013D00031EE211ABDEEC11A11EE100A00B2144905
:1013E00008800F4890ED001A0F4880ED001A08465B
:1013F000B0F9000041F26801884202DD08460C495C
:1014000008800B48B0F900000A49884203DA4EF61A
:101410009870074908800648B0F90000704700003E
:101420002C00002008000020300000200A000020CE
:101430002800002098EFFFFF30EE601A264880ED6C
:10144000001A2648B0F9000001EE100AB8EEC11AE1
:101450002148D0ED001A21EE211AD0ED001A2048C3
:1014600090ED002A31EEC22A1E48B0F9000001EECC
:10147000900AF8EEE11A01EE821A1B48B0F900005A
:1014800001EE900AF8EEE11A31EE211ABDEEC11A12
:1014900011EE100A00B2144908800F4890ED001AAE
:1014A0000F4880ED001A0846B0F9000041F26801CB
:1014B000884202DD08460C4908800B48B0F900005C
:1014C0000A49884203DA4EF69870074908800648B0
:1014D000B0F900007047000038000020080000202C
:1014E0003C0000200A0000203400002098EFFFFF9D
:1014F00030EE601A264880ED001A2648B0F9000048
:1015000001EE100AB8EEC11A2148D0ED001A21EE02
:10151000211AD0ED001A204890ED002A31EEC22A9F
:101520001E48B0F9000001EE900AF8EEE11A01EE53
:10153000821A1B48B0F9000001EE900AF8EEE11A99
:1015400031EE211ABDEEC11A11EE100A00B2144993
:1015500008800F4890ED001A0F4880ED001A0846E9
:10156000B0F9000041F26801884202DD08460C49EA
:1015700008800B48B0F900000A49884203DA4EF6A9
:101580009870074908800648B0F9000070470000CD
:101590004400002008000020480000200A0000202D
:1015A0004000002098EFFFFF0448007820B10020A1
:1015B00002490870012070470020FCE74F0000201E
:1015C00010B504460021044802F0D3FB214602482E
:1015D00002F01CF910BD0000001400401FB50446C5
:1015E0000121202000F0E4F9601E02905320ADF8A4
:1015F00004000020ADF80600ADF80C0001A90F486A
:1016000002F0E6FB01210D4802F0FAF80122114632
:101610000A4802F051FA0121084802F0F7F8372091
:101620008DF8000002208DF8010001208DF80200E5
:101630008DF80300684600F02BF91FBD0014004030
:1016400010B588B004460121084600F0A1F9012137
:10165000102000F0CDF907220921244800F0DDF820
:1016600007220A21214800F0D8F84FF4C060069004
:1016700002208DF81C008DF81D0000208DF81E0042
:1016800001208DF81F0006A9184800F07EF802948A
:101690000020ADF80C00ADF80E00ADF81000ADF86C
:1016A00014000C20ADF8120002A9114802F0D4FC7D
:1016B00001210F4802F067FC40210D4802F05AFC5E
:1016C000012240F225510A4802F0A0FC25208DF8A5
:1016D000040001208DF805008DF806008DF8070044
:1016E00001A800F0D5F808B010BD000000000240CD
:1016F000001001402DE9F04707460D4690464FF097
:101700000009202D37DCAA201C490870552048709C
:10171000681D8870084680F80380002405E0395D64
:10172000201D164A1154601CC4B2AC42F7DB281DC0
:10173000C6B2002406E01148005D484400F0FF09ED
:10174000601CC4B2B442F6DB0C4800F80490681D7B
:10175000C6B200240DE00948015D094802F0EBFC27
:1017600000BF4021064802F01AFC0128F9D1601C94
:10177000C4B2B442EFDBBDE8F0870000F8000020FF
:101780000010014000BFFEE77047F0B50A46002197
:101790000023002400BF3DE0012505FA01F3156890
:1017A00005EA03049C4234D105684F000326BE407D
:1017B000B543056015794E00B540066835430560B0
:1017C0001579012D02D01579022D16D185684F00AB
:1017D0000326BE40B543856055794E00B540866806
:1017E00035438560456801268E40B54345604568B0
:1017F00096798E40B6B235434560C5684F000326E2
:10180000BE40B543C560D5794E00B540C668354386
:10181000C560491C1029BFD3F0BDF0B500230024DA
:101820004D07ED0E02FA05F3CE1000F1200555F834
:1018300026504E07F70E0F26BE40B543CF1000F1DD
:10184000200646F82750CE1000F1200555F8265006
:1018500045EA0304CE1000F1200545F82640F0BD0E
:101860000246002013690B400BB1012000E000206C
:10187000704741837047018370470AB1018300E0DC
:101880004183704700BFFEE700BFFEE770470000DE
:1018900070B5002100230F22C4781CB3174C2468B4
:1018A00004F4E064C4F5E064C4F30721C1F1040466
:1018B000E3B20A4144789C40E1B284781440214369
:1018C0000C07210E0E4C05786155047804F01F05B5
:1018D0000124AC4005786D11AD0005F1E025C5F897
:1018E000004109E0047804F01F050124AC40054DD7
:1018F0000678761145F8264070BD00000CED00E03A
:1019000000E400E080E100E002490143024A116086
:10191000704700000000FA050CED00E01CB504461D
:10192000002001900120009027E09DF80000204059
:1019300018B101201449086002E000201249086033
:10194000002011490C3908601020FEF73DFF0F48B8
:10195000D0F8300228B19DF804009DF8001008432B
:101960000190012008490C3908601020FEF72CFF77
:101970009DF800004006000E00909DF80000002831
:10198000D3DC9DF804001CBDA80242420000424284
:1019900029B1064A12680243044B1A6004E0034A64
:1019A00012688243014B1A607047000030380240D1
:1019B00029B1064A12680243044B1A6004E0034A44
:1019C00012688243014B1A607047000040380240A1
:1019D00029B1064A12680243044B1A6004E0034A24
:1019E00012688243014B1A607047000020380240A1
:1019F00029B1064A12680243044B1A6004E0034A04
:101A000012688243014B1A6070470000443802405C
:101A100029B1064A12680243044B1A6004E0034AE3
:101A200012688243014B1A6070470000243802405C
:101A3000F0B5002100220024022500260223324FA7
:101A40003F6807F00C0121B1042905D0082937D1DE
:101A500005E02E4F076036E02D4F076033E02A4F38
:101A60003F1F3F68C7F38056274F3F1F3F6807F06F
:101A70003F036EB1264FB7FBF3F7DFF88CC0ACF134
:101A8000040CDCF800C0CCF3881C07FB0CF40CE061
:101A90001E4FB7FBF3F7DFF870C0ACF1040CDCF8B5
:101AA00000C0CCF3881C07FB0CF4174F3F1F3F68A6
:101AB000C7F301477F1C7D00B4FBF5F7076002E028
:101AC000124F076000BF00BF0F4F3F6807F0F001E3
:101AD0000909104F7A5C0768D74047600A4F3F6892
:101AE00007F4E051890A0B4F7A5C4768D74087605A
:101AF000054F3F6807F46041490B064F7A5C476821
:101B0000D740C760F0BD0000083802400024F40050
:101B100000127A005000002070B52DED108B86B0B9
:101B2000FEF777FE06B23046FEF7E6FC41EC1D0BF1
:101B30009FEDFE0B53EC102BFEF7FDFB41EC1C0B55
:101B4000FEF71DFD0546FEF707FDFA4A03C2002019
:101B5000FEF7CCFEFEF7CEFE06B23046FEF7CCFC1A
:101B600041EC1E0B9FEDF10B53EC102BFEF7E3FB4A
:101B700041EC1D0B81F0004141EC1C0BFEF7FFFC1A
:101B80000546FEF7E9FCEC4A03C20020FEF712FF0F
:101B9000EA48B0F9060040F2DC51884202DD08460E
:101BA000E649C880E548B0F90600E549884203DA0D
:101BB0004FF62420E149C880E049B1F90600FEF75C
:101BC0009BFC41EC1C0B9FEDDF0B53EC102BFEF745
:101BD00024FC41EC1A0BDD48B0F90000FEF78CFC48
:101BE00041EC1C0B9FEDD70B53EC102BFEF715FCB3
:101BF00041EC1B0BB0EE4B0AF0EE6B0A02F028FC36
:101C0000B0EE40CAF0EE60CA53EC1C2B9FEDD00B37
:101C100051EC100BFEF701FC41EC190BCB4800888E
:101C2000002877D09FEDCC0B53EC102B51EC190B07
:101C3000FEF77BFB41EC1E0B53EC1A2BFEF77BFBF4
:101C400041EC1D0B53EC192BFEF7E7FB41EC1C0B91
:101C5000FEF795FCB74988609FEDBF0B53EC102B46
:101C600051EC190BFEF7C0FA41EC1E0B53EC1A2B8A
:101C7000FEF761FB41EC1D0B53EC192BFEF7CDFB7E
:101C800041EC1C0BFEF77BFCAB4988609FEDB40B6D
:101C900053EC102B51EC1B0BFEF74DFBCDE9000173
:101CA0009DED000B02F0D4FB8DED020B9DED020BC0
:101CB00053EC102B9FEDA60B51EC100BFEF7ADFB78
:101CC00041EC1F0B9FEDA40B53EC102BFEF78CFA8D
:101CD00041EC1E0B53EC1E2B9FED9D0B51EC100B9A
:101CE000FEF79BFB41EC1D0BB0EE4D0AF0EE6D0ACA
:101CF00002F042FAB0EE40CAF0EE60CA9FED9A0BD5
:101D000053EC102B51EC1C0BFEF715FB41EC180BA0
:101D10000EE0FFE751EC1A0BFEF731FC85498860B5
:101D200051EC1A0BFEF72BFC834988609FED908BDA
:101D300053EC182B9FED900B51EC100BFEF7FBFAB8
:101D400041EC1E0B53EC182B9FED8D0B51EC100B3F
:101D5000FEF7F1FA41EC1F0B53EC182BFEF7EBFAF0
:101D600053EC1E2BCDE900019DED000B51EC100B47
:101D7000FEF73AFA41EC1D0B81F0004141EC1C0BDF
:101D80009FED810B53EC102BFEF7D5FA9FED800BE6
:101D900053EC102BCDE902019DED020B51EC100B21
:101DA000FEF73BFBCDE904017B48B0F90000FEF7EC
:101DB000A3FB41EC1D0B9FED790B53EC102B9DED1C
:101DC000040B51EC100BFEF7B6FA41EC1E0B53EC72
:101DD0001D2BFEF709FA41EC1C0BFEF79EFB04B22B
:101DE0002046FFF7D1F92046FFF748FA514890ED19
:101DF000001BB0EE410AF0EE610A51EC100BFEF749
:101E0000BEFB0CEE100A4B48D0ED020AB0EE600AA1
:101E1000F0EE4C0AFFF758FA46498881464890EDA3
:101E2000001BB0EE410AF0EE610A51EC100BFEF718
:101E3000A6FB0CEE100A4048D0ED020AB0EE600A94
:101E4000F0EE4C0AFFF79CFA3B49888139498989B1
:101E5000494208B2FEF724FF37498989494208B24E
:101E6000FEF748FF0020FFF725F80020FFF74CF8A9
:101E7000314890ED002BB0EE420AF0EE620A2D4898
:101E800090ED002BB0EE421AF0EE621A53EC102BDC
:101E900051EC110BFEF7A8F941EC1E0B9FED410B25
:101EA00053EC102BFEF7B9FA41EC1D0B9FED250BFF
:101EB00053EC102BFEF73FFA41EC1C0BFEF72DFB09
:101EC00000B21E490880002048801A4890ED001B8F
:101ED000B0EE410AF0EE610A51EC100B81F00041C6
:101EE00041EC1F0B144890ED001BB0EE410AF0EEE0
:101EF000610A53EC102B51EC1F0BFEF775F941EC06
:101F00001E0B9FED2A0B53EC102BFEF786FA41ECCB
:101F10001D0B9FED0C0B53EC102BFEF70CFA41EC54
:101F20001C0BFEF7FAFA00B2044943E06C5932EA9E
:101F3000C3EE7E3F90000020A0000020680000203B
:101F400024FAFFFF0000000000408F400E00002038
:101F5000000000606666C63F1F85EB51B81EB53FA6
:101F6000CAC342AD69DE913F144C77B6D7A54C4049
:101F700000000000000000009BE61DA7E848F33FBA
:101F8000091B9E5E29CB703F000000000080664068
:101F9000A7E8482EFF2109401000002000000000A3
:101FA0000000244000000000000000401F85EB51AD
:101FB000B81EC53F888006B0BDEC108B70BD000018
:101FC00070B52DED0C8BFEF724FC05B22846FEF70C
:101FD00093FA41EC190B9FEDFE0B53EC102BFEF71F
:101FE000AAF941EC180BFEF7CAFA0446FEF7B4FA58
:101FF000F94A03C20020FEF779FCFEF77BFC05B22C
:102000002846FEF779FA41EC1A0B9FEDF10B53ECE1
:10201000102BFEF790F941EC190B81F0004141ECD7
:10202000180BFEF7ACFA0446FEF796FAEB4A03C229
:102030000020FEF7BFFCFEF7C3FC05B22846FEF702
:102040005BFA41EC190B9FEDE20B53EC102BFEF702
:1020500072F941EC180BFEF792FA0446FEF77CFA8F
:10206000DF4A03C20020FEF70BFDFEF70FFD05B2AD
:102070002846FEF741FA41EC1A0B9FEDD50B53ECC5
:10208000102BFEF758F941EC190B81F0004141EC9F
:10209000180BFEF774FA0446FEF75EFAD14A03C243
:1020A0000020FEF753FDCD4890ED002BB0EE420A24
:1020B000F0EE620AC84890ED002BB0EE421AF0EE46
:1020C000621A53EC102B51EC110BFEF78DF841EC1A
:1020D0001C0BC34890ED001BB0EE410AF0EE610A04
:1020E00053EC102B51EC1C0BFEF77EF841EC1B0B54
:1020F000BC4890ED001BB0EE410AF0EE610A53ECD3
:10210000102B51EC1B0BFEF76FF841EC1A0B9FEDF7
:10211000B60B53EC102BFEF780F941EC190B9FED39
:10212000B40B53EC102BFEF706F941EC180BFEF73D
:10213000F4F900B2B049088000204880A64890ED2C
:10214000001BB0EE410AF0EE610A51EC100B81F079
:10215000004141EC1D0BA14890ED001BB0EE410A7F
:10216000F0EE610A53EC102B51EC1D0BFEF73CF81E
:1021700041EC1C0B9A4890ED001BB0EE410AF0EECA
:10218000610A53EC102B51EC1C0BFEF7CEF841EC1E
:102190001B0B944890ED001BB0EE410AF0EE610A73
:1021A00053EC102B51EC1B0BFEF71EF841EC1A0BF5
:1021B0009FED920B53EC102BFEF72FF941EC190B0E
:1021C0009FED8B0B53EC102BFEF7B5F841EC180B81
:1021D000FEF7A3F900B2884988800846B0F90600E6
:1021E00040F2DC51884202DD08468349C8808248BB
:1021F000B0F906008349884203DA4FF624207E496D
:10220000C8807D48B0F90800B0F5966F03DD4FF443
:102210009660794908817848B0F9080010F5966F02
:1022200003DA4FF65030744908817348B0F90A0058
:1022300041F68801884202DD08466F4948816E48B0
:10224000B0F90A007049884203DA4EF278706A49A0
:1022500048816949B1F90600FEF74EF941EC190BC6
:102260009FED630B53EC102BFEF7D7F841EC180BE6
:10227000FEF785F9604988619FED640A084680EDA4
:10228000070AB1F90A00FEF737F941EC190B9FED87
:10229000580B53EC102BFEF7C0F841EC180BFEF76F
:1022A0006EF955490862084690ED080A10EE101ABA
:1022B0000846FEF751F941EC1B0B9FED550B53EC13
:1022C000102BFEF738F841EC190B4B4890ED060A3D
:1022D00010EE101A0846FEF73FF941EC1A0B53ECCA
:1022E000192BFEF722F841EC180BFEF748F93A4992
:1022F0008860414890ED080A10EE101A0846FEF773
:102300002BF941EC1B0B9FED420B53EC102BFEF70E
:1023100012F841EC190B384890ED060A10EE101A2D
:102320000846FEF719F941EC1A0B53EC192BFDF78F
:102330005BFF41EC180BFEF722F9284988602E4814
:1023400090ED080A10EE101A0846FEF705F941EC68
:102350001B0B9FED2F0B53EC102BFDF7ECFF41EC0B
:10236000190B254890ED060A10EE101A0846FEF7E4
:10237000F3F841EC1A0B53EC192BFDF7D6FF41ECA7
:10238000180BFEF7FCF8164988601B4890ED080A08
:1023900010EE101A0846FEF7DFF841EC1B0B9FED1C
:1023A0001C0B53EC102BFDF7C6FF41EC190B124828
:1023B00090ED060A10EE101A0846FEF7CDF841EC33
:1023C0001A0B53EC192BFDF70FFF41EC180B23E010
:1023D000E6B33C0FEECE7A3F90000020A000002034
:1023E000B0000020C00000200000000000001040ED
:1023F0000000000000408F4068000020BF9F1A2F9F
:10240000DD24E23F24FAFFFF78E7FFFF0000000031
:10241000BF9F1A2FDD24C23FFEF7B1F84449886000
:10242000444890ED001BB0EE410AF0EE610A51EC19
:10243000100BFEF7A4F808EE100A3E48D0ED020A91
:10244000B0EE600AF0EE480AFEF73EFF3949888197
:10245000394890ED001BB0EE410AF0EE610A51ECF4
:10246000100BFEF78CF808EE100A3348D0ED020A84
:10247000B0EE600AF0EE480AFEF782FF2E4988812E
:102480002E4890ED001BB0EE410AF0EE610A51ECCF
:10249000100BFEF774F808EE100A2848D0ED020A77
:1024A000B0EE600AF0EE480AFEF7C6FF23498881C5
:1024B0001F4890ED001BB0EE410AF0EE610A51ECAE
:1024C000100BFEF75CF808EE100A1948D0ED020A6E
:1024D000B0EE600AF0EE480AFFF70AF81449888166
:1024E0001748C08858B91648408940B9002011499A
:1024F000888111498881114988810D4988810D4958
:102500008989494208B2FEF7CBFB0B4989894942C8
:1025100008B2FEF7EFFB0949B1F90C00FEF7CAFC5F
:102520000349B1F90C00FEF7EFFCBDEC0C8B70BD5C
:10253000C000002090000020A0000020B00000207B
:102540006800002070B52DED0E8BFEF762F905B224
:102550002846FDF7D1FF41EC190B9FEDFE0B53EC24
:10256000102BFDF7E8FE41EC180BFEF708F80446C7
:10257000FDF7F2FFF94A03C20020FEF7B7F9FEF7B4
:10258000B9F905B22846FDF7B7FF41EC1A0B9FEDEC
:10259000F10B53EC102BFDF7CEFE41EC190B81F043
:1025A000004141EC180BFDF7EAFF0446FDF7D4FFAC
:1025B000EB4A03C20020FEF7FDF9FEF701FA05B26F
:1025C0002846FDF799FF41EC190B9FEDE20B53EC08
:1025D000102BFDF7B0FE41EC180BFDF7D0FF0446C1
:1025E000FDF7BAFFDF4A03C20020FEF749FAFEF703
:1025F0004DFA04B22046FDF77FFF41EC1A0B9FED28
:10260000D50B53EC102BFDF796FE41EC190B81F026
:10261000004141EC180BFDF7B2FF0546FDF79CFFAA
:10262000D14A03C20020FEF791FACD4890ED002B6D
:10263000B0EE420AF0EE620AC84890ED002BB0EE10
:10264000421AF0EE621A53EC102B51EC110BFDF70D
:10265000CBFD41EC1C0BC34890ED001BB0EE410AD2
:10266000F0EE610A53EC102B51EC1C0BFDF7BCFD96
:1026700041EC1B0BBC4890ED001BB0EE410AF0EEA4
:10268000610A53EC102B51EC1B0BFDF7ADFD41EC37
:102690001A0B9FEDB60B53EC102BFDF7BEFE41EC71
:1026A000190B9FEDB40B53EC102BFDF744FE41ECDE
:1026B000180BFDF732FF00B2B0490880A74890ED33
:1026C000001BB0EE410AF0EE610A51EC100B81F0F4
:1026D000004141EC1D0BA24890ED001BB0EE410AF9
:1026E000F0EE610A53EC102B51EC1D0BFDF77CFD55
:1026F00041EC1C0B9B4890ED001BB0EE410AF0EE44
:10270000610A53EC102B51EC1C0BFDF76DFD41ECF5
:102710001B0B954890ED001BB0EE410AF0EE610AEC
:1027200053EC102B51EC1B0BFDF7FFFD41EC1A0B8A
:102730009FED8E0B53EC102BFDF76FFE41EC190B48
:102740009FED8C0B53EC102BFDF7F5FD41EC180BB6
:10275000FDF7E3FE00B289494880804890ED001BF8
:10276000B0EE410AF0EE610A51EC100B81F000412D
:1027700041EC1E0B7A4890ED001BB0EE410AF0EEE2
:10278000610A53EC102B51EC1E0BFDF72DFD41ECB3
:102790001D0B744890ED001BB0EE410AF0EE610A8B
:1027A00053EC102B51EC1D0BFDF7BFFD41EC1C0B46
:1027B0006D4890ED001BB0EE410AF0EE610A53EC5B
:1027C000102B51EC1C0BFDF70FFD41EC1B0B9FED8B
:1027D000670B53EC102BFDF720FE41EC1A0B9FED1D
:1027E000680B53EC102BFDF718FE41EC190B9FED15
:1027F000610B53EC102BFDF79EFD41EC180BFDF720
:102800008CFE00B25D4988800846B0F9060040F2AF
:10281000DC51884202DD08465849C8805748B0F963
:1028200006005949884203DA4FF624205349C880EC
:102830005248B0F90800B0F5966F03DD4FF496608A
:102840004E4908814D48B0F9080010F5966F03DA3B
:102850004FF65030494908814848B0F90A0041F61E
:102860008801884202DD0846444948814348B0F95E
:102870000A004649884203DA4EF278703F4948819F
:102880003E49B1F90600FDF737FE41EC190B9FED0B
:10289000390B53EC102BFDF7C0FD41EC180BFDF785
:1028A0006EFE36498861B1F90800FDF725FE41EC5E
:1028B000190B9FED300B53EC102BFDF7AEFD41ECE7
:1028C000180BFDF75CFE2D49C861B1F90A00FDF750
:1028D00013FE41EC190B9FED270B53EC102BFDF76A
:1028E0009CFD41EC180BFDF74AFE2449086208469E
:1028F00090ED080A10EE101A0846FDF72DFE41EC87
:102900001B0B9FED1F0B53EC102BFDF714FD41EC3F
:10291000190B1A4890ED060AD0ED070A30EE600A4E
:1029200010EE101A0846FDF717FE41EC1A0B53EC97
:10293000192BFDF7FAFC41EC180BFDF720FE0749B7
:1029400088600E4890ED080A10EE101A0846FDF750
:1029500003FE1DE01796D66B577F803F9000002046
:10296000A0000020B0000020C000002000000000F7
:10297000000010400000000000408F406800002070
:102980002FDD24068195C33F24FAFFFF78E7FFFF80
:1029900041EC1B0B1FED060B53EC102BFDF7CBFC92
:1029A00041EC190B724890ED060AD0ED070A30EEA3
:1029B000200A10EE101A0846FDF7CEFD41EC1A0B66
:1029C00053EC192BFDF710FC41EC180BFDF7D7FD6C
:1029D00068498860664890ED080A10EE101A0846AB
:1029E000FDF7BAFD41EC1B0B1FED1B0B53EC102B3D
:1029F000FDF7A1FC41EC190B5D4890ED060AD0ED06
:102A0000070A30EE200A10EE101A0846FDF7A4FD62
:102A100041EC1A0B53EC192BFDF787FC41EC180B1A
:102A2000FDF7ADFD54498860514890ED080A10EE5D
:102A3000101A0846FDF790FD41EC1B0B1FED300B03
:102A400053EC102BFDF777FC41EC190B484890ED47
:102A5000060AD0ED070A30EE600A10EE101A08469A
:102A6000FDF77AFD41EC1A0B53EC192BFDF7BCFB7B
:102A700041EC180BFDF783FD40498860404890ED1C
:102A8000001BB0EE410AF0EE610A51EC100BFDF7AD
:102A900076FD08EE100A3A48D0ED020AB0EE600A60
:102AA000F0EE480AFEF710FC35498881314890ED78
:102AB000001BB0EE410AF0EE610A51EC100BFDF77D
:102AC0005EFD08EE100A2B48D0ED020AB0EE600A57
:102AD000F0EE480AFEF754FC26498881264890ED1E
:102AE000001BB0EE410AF0EE610A51EC100BFDF74D
:102AF00046FD08EE100A2048D0ED020AB0EE600A4A
:102B0000F0EE480AFEF798FC1B4988811B4890EDBF
:102B1000001BB0EE410AF0EE610A51EC100BFDF71C
:102B20002EFD08EE100A1548D0ED020AB0EE600A3C
:102B3000F0EE480AFEF7DCFC1049888110498989CB
:102B4000494208B2FEF7ACF80A498989494208B2FD
:102B5000FEF7D0F80849B1F90C00FEF7ABF90749C8
:102B6000B1F90C00FEF7D0F9BDEC0E8B70BD000082
:102B700068000020A0000020B0000020C00000205D
:102B80009000002070B52DED0C8BFDF742FE04B2D5
:102B90002046FDF7B1FC41EC1A0B9FEDFE0B53EC08
:102BA000102BFDF7C8FB41EC190B81F0004141EC03
:102BB000180BFDF7E4FC0546FDF7CEFCF74A03C20F
:102BC0000020FDF793FEFDF795FE05B22846FDF7C0
:102BD00093FC41EC190B9FEDEF0B53EC102BFDF721
:102BE000AAFB41EC180BFDF7CAFC0446FDF7B4FC48
:102BF000EB4A03C20020FDF7DDFEFDF7E1FE05B262
:102C00002846FDF779FC41EC1A0B9FEDE20B53ECE3
:102C1000102BFDF790FB41EC190B81F0004141ECCA
:102C2000180BFDF7ACFC0446FDF796FCDD4A03C229
:102C30000020FDF725FFD94890ED001BB0EE410ABA
:102C4000F0EE610A51EC100B81F0004141EC1B0BDE
:102C5000D34890ED001BB0EE410AF0EE610A53EC50
:102C6000102B51EC1B0BFDF7BFFA41EC1A0B9FED3B
:102C7000CE0B53EC102BFDF7D0FB41EC190B9FED65
:102C8000CC0B53EC102BFDF756FB41EC180BFDF76A
:102C900044FC00B2C8490880C24890ED001BB0EE69
:102CA000410AF0EE610A53EC102B9FEDC41B51EC6E
:102CB000110BFDF740FB41EC1B0BB84890ED001BDE
:102CC000B0EE410AF0EE610A51EC100B81F00041C8
:102CD00041EC1D0BB24890ED001BB0EE410AF0EE46
:102CE000610A53EC102B51EC1D0BFDF77DFA41EC02
:102CF0001C0B53EC1B2BFDF718FB41EC1A0B9FED43
:102D0000B10B53EC102BFDF788FB41EC190B9FED39
:102D1000A80B53EC102BFDF70EFB41EC180BFDF745
:102D2000FCFB00B2A44948809D4890ED002BB0EE1A
:102D3000420AF0EE620A994890ED002BB0EE421A7A
:102D4000F0EE621A53EC102B51EC110BFDF74CFA1C
:102D500041EC1B0B934890ED001BB0EE410AF0EEE6
:102D6000610A53EC102B51EC1B0BFDF73DFA41ECC3
:102D70001A0B9FED960B53EC102BFDF74EFB41EC1D
:102D8000190B9FED8B0B53EC102BFDF7D4FA41EC94
:102D9000180BFDF7C2FB00B2874988800846B0F9DE
:102DA000060040F2DC51884202DD08468249C880B4
:102DB0008148B0F906008749884203DA4FF624209B
:102DC0007D49C8807C48B0F90800B0F5966F03DDF6
:102DD0004FF49660784908817748B0F9080010F5FB
:102DE000966F03DA4FF65030734908817248B0F994
:102DF0000A0041F68801884202DD08466E49488192
:102E00006D48B0F90A007449884203DA4EF27870CE
:102E1000694948816849B1F90600FDF76DFB41EC4D
:102E2000190B9FED630B53EC102BFDF7F6FA41ECF9
:102E3000180BFDF7A4FB60498861B1F90800FDF7A4
:102E40005BFB41EC190B9FED5A0B53EC102BFDF77C
:102E5000E4FA41EC180BFDF792FB5749C861B1F950
:102E60000A00FDF749FB41EC190B9FED510B53ECA8
:102E7000102BFDF7D2FA41EC180BFDF780FB4E4901
:102E80000862084690ED080A10EE101A0846FDF791
:102E900063FB41EC180B9FED510B53EC102BFDF72E
:102EA0004AFA41EC1A0B444890ED070A10EE101A4A
:102EB0000846FDF751FB41EC1D0B9FED4A0B53EC0F
:102EC000102BFDF738FA41EC1C0B3B4890ED060A3D
:102ED00010EE101A0846FDF73FFB41EC1D0B9FED6D
:102EE000430B53EC102BFDF726FA41EC180B53EC77
:102EF0001C2BFDF779F941EC1B0B53EC1A2BFDF75A
:102F000073F941EC190BFDF73AFB244988602A4814
:102F100090ED080A10EE101A0846FDF71DFB41EC73
:102F2000190B9FED2E0B53EC102BFDF704FA41EC1F
:102F30001B0B214890ED070A10EE101A0846FDF70A
:102F40000BFB41EC1D0B9FED270B53EC102BFDF7FA
:102F5000F2F941EC190B184890ED060A10EE101A20
:102F60000846FDF7F9FA41EC1D0B9FED1E0B53ECE3
:102F7000102BFDF7E0F941EC1A0B53EC192BFDF780
:102F800033F941EC1C0B53EC1B2BFDF72DF941ECF5
:102F9000180B2FE01796D66B577F803F90000020CC
:102FA000A0000020B000002083C0CAA145B6FB3FAE
:102FB0000000000000408F4068000020000000007A
:102FC0000000004000000000000008402DB29DEF0E
:102FD000A7C6E33F24FAFFFF78E7FFFF91ED7C3FB0
:102FE000355ECA3F000000000000E03F0000000026
:102FF0000000E0BFFDF7C3FA43498860434890ED05
:10300000080A10EE101A0846FDF7A6FA41EC1B0B51
:103010001FED0E0B53EC102BFDF78DF941EC190B46
:103020003A4890ED070AB1EE400A10EE101A084631
:10303000FDF792FA41EC1A0B53EC192BFDF7D4F87B
:1030400041EC180BFDF79BFA31498860314890ED4F
:10305000001BB0EE410AF0EE610A51EC100BFDF7D7
:103060008EFA08EE100A2B48D0ED020AB0EE600A84
:10307000F0EE480AFEF728F926498881224890EDAB
:10308000001BB0EE410AF0EE610A51EC100BFDF7A7
:1030900076FA08EE100A1C48D0ED020AB0EE600A7B
:1030A000F0EE480AFEF76CF917498881184890ED50
:1030B000001BB0EE410AF0EE610A51EC100BFDF777
:1030C0005EFA08EE100A1248D0ED020AB0EE600A6D
:1030D000F0EE480AFEF7B0F90D4988810D49B1F9C3
:1030E0000C00FDF7DDFD0849B1F90C00FDF702FE0B
:1030F00007498989494208B2FDF7DCFE0020FDF747
:1031000003FFBDEC0C8B70BDA00000206800002008
:10311000B00000209000002010B51548FDF774FFA6
:1031200013480078732821D111480079C0F180003C
:103130001049097810FB01F000B20F49C8800C4813
:10314000C078C0F180000B49097810FB01F000B293
:103150000949088107480078800005494979C1F18B
:10316000800110FB01F000B20349488110BD00004E
:1031700012000020060000206800002010B50E4854
:103180000088000A0D4908700B48007848700A480A
:103190004088000A887008488078C870064880888F
:1031A000000A08710448007948711022062103487A
:1031B000FEF7A0FA10BD000068000020000000200B
:1031C00070B52DED088BFDF724FB05B22846FDF701
:1031D00093F941EC190B9FEDC20B53EC102BFDF74B
:1031E000AAF841EC180BFDF7CAF90446FDF7B4F94B
:1031F000BD4A03C20020FDF779FBFDF77BFB05B25A
:103200002846FDF779F941EC1A0B9FEDB50B53EC0D
:10321000102BFDF790F841EC190B81F0004141ECC7
:10322000180BFDF7ACF90446FDF796F9AF4A03C257
:103230000020FDF7BFFBAD4890ED002BB0EE420A39
:10324000F0EE620AA84890ED002BB0EE421AF0EEC4
:10325000621A53EC102B51EC110BFCF7C5FF41EC3B
:103260001A0B9FEDA30B53EC102BFDF7D6F841EC96
:10327000190B9FEDA10B53EC102BFDF75CF841EC03
:10328000180BFDF74AF900B29D49088000204880DC
:10329000954890ED001BB0EE410AF0EE610A51EC4A
:1032A000100B81F0004141EC1B0B904890ED001B8E
:1032B000B0EE410AF0EE610A53EC102B51EC1B0BFF
:1032C000FCF792FF41EC1A0B9FED8E0B53EC102B89
:1032D000FDF7A3F841EC190B9FED870B53EC102B76
:1032E000FDF729F841EC180BFDF717F900B28449F6
:1032F00088800846B0F9060040F2DC51884202DDC1
:1033000008467F49C8807E48B0F906007F49884258
:1033100003DA4FF624207A49C8807948B0F90800CA
:10332000B0F5966F03DD4FF49660754908817448D7
:10333000B0F9080010F5966F03DA4FF65030704977
:1033400008816F48B0F90A0041F68801884202DD21
:1033500008466B4948816A48B0F90A006C498842BE
:1033600003DA4EF27870664948816549B1F9060082
:10337000FDF7C2F841EC190B9FED5F0B53EC102BDE
:10338000FDF74BF841EC180BFDF7F9F85C49886143
:103390009FED600A084680ED070AB1F90A00FDF7C3
:1033A000ABF841EC190B9FED540B53EC102BFDF7D0
:1033B00034F841EC180BFDF7E2F851490862084671
:1033C00090ED080A10EE101A0846FDF7C5F841EC1A
:1033D0001B0B9FED510B53EC102BFCF7ACFF41EC9A
:1033E000190B474890ED060A10EE101A0846FDF733
:1033F000B3F841EC1A0B53EC192BFCF796FF41EC98
:10340000180BFDF7BCF8384988603D4890ED080A74
:1034100010EE101A0846FDF79FF841EC1B0B9FEDCC
:103420003E0B53EC102BFCF786FF41EC190B344894
:1034300090ED060A10EE101A0846FDF78DF841ECE3
:103440001A0B53EC192BFCF7CFFE41EC180BFDF7D0
:1034500096F826498860244890ED001BB0EE410A9A
:10346000F0EE610A51EC100BFDF789F808EE100A36
:103470001D48D0ED020AB0EE600AF0EE480AFDF7F2
:1034800023FF19498881194890ED001BB0EE410ACD
:10349000F0EE610A51EC100BFDF771F808EE100A1E
:1034A0001248D0ED020AB0EE600AF0EE480AFDF7CD
:1034B00067FF0E4988810C498989494208B2FDF7A6
:1034C000EFFB0A498989494208B2FDF713FC002045
:1034D000FDF7F0FC0020FDF717FDBDEC088B70BD7B
:1034E000D3EB2F833FDC7D3F90000020A000002025
:1034F00000000000000000400000000000408F407D
:103500006800002091ED7C3F355ECA3F24FAFFFF42
:1035100078E7FFFF0000000091ED7C3F355EBA3F89
:10352000704700000CB500200190009034480068FE
:1035300040F480303249086000BF3148006800F430
:10354000003000900198401C0190009818B9019833
:10355000B0F5A04FF1D12A48006800F4003010B156
:103560000120009001E0002000900098012846D141
:1035700023484030006840F08050214940310860C5
:103580002048006840F440401E4908601C4808304C
:1035900000681B49083108600846006840F4004094
:1035A00008600846006840F4A05008601648091FEB
:1035B0000860081F006840F08070091F086000BFA5
:1035C0000F48006800F000700028F9D040F2057044
:1035D0000E4908600A480830006820F003000849D6
:1035E000083108600846006840F00200086000BF2B
:1035F00003480830006800F00C000828F8D10CBD22
:10360000003802400070004008544007003C02406F
:10361000042808D14FF0E021096941F004014FF07E
:10362000E022116107E04FF0E021096921F0040177
:103630004FF0E0221161704710B51548006840F462
:103640007000134908601348006840F001001149F8
:10365000086000200F49083108600E4800680E49D4
:1036600008400C4908600D48091D0860081F0068E3
:1036700020F48020091F0860002006490C310860F2
:10368000FFF750FF4FF0006001498039086010BD1E
:1036900088ED00E000380240FFFFF6FE1030002405
:1036A000F0B50C46154600210022068C4FF6FE7739
:1036B0003E400684018B028C4FF60C7631407E1C16
:1036C00006EA03162E4331434FF6F576324044F0B6
:1036D0000106324301830284F0BDF0B50C46154665
:1036E000002100220026078C4FF6EF7C07EA0C072A
:1036F0000784018B028C4FF6FF7707EA041640F629
:10370000FF4739404FF6FF7707EA033739434FF653
:10371000FF7707EA052739434FF65F773A4046F0CF
:1037200010073A4301830284F0BDF0B50C461546FC
:10373000002100220026078C4FF6FF6C07EA0C07D9
:103740000784818B028C4FF6FF7707EA04264FF639
:103750000C7739404FF6FF7707EA03172F433943B9
:103760004FF2FF573A4046F480773A438183028410
:10377000F0BDF0B50C461546002100220026078C4E
:103780004EF6FF7C07EA0C070784818B028C4FF60C
:10379000FF7707EA043640F6FF4739404FF6FF77D8
:1037A00007EA052739434FF6FF7707EA033739431E
:1037B00045F6FF773A4046F480573A4381830284C6
:1037C000F0BD000010B50121054800F024F930B12A
:1037D0000120044908700121014800F014F810BDCF
:1037E000001400404F00002021B1028842F0800206
:1037F000028004E002884FF67F731A40028070470F
:10380000CA4302827047CA430282704721B10288CC
:1038100042F00102028004E002884FF6FE731A4073
:103820000280704731B1B0F8442042F40042A0F861
:10383000442005E0B0F84420C2F30E02A0F8442072
:103840007047000010B504465548844208D1012154
:103850000846FEF7DDF800210120FEF7D9F89DE0CB
:10386000B4F1804F08D101210846FEF7B1F80021DC
:103870000120FEF7ADF891E04A48844208D10121C9
:103880000220FEF7A5F800210220FEF7A1F885E04E
:103890004548844208D101210420FEF799F800210F
:1038A0000420FEF795F879E04048844208D10121D0
:1038B0000820FEF78DF800210820FEF789F86DE05A
:1038C0003B48844208D101211020FEF781F80021F5
:1038D0001020FEF77DF861E03648844208D10121CE
:1038E0002020FEF775F800212020FEF771F855E042
:1038F0003148844208D101210220FEF789F80021D5
:103900000220FEF785F849E02C48844209D10121C4
:103910000804FEF77DF800214FF48030FEF778F8B8
:103920003CE02748844209D101214804FEF770F8A1
:1039300000214FF40030FEF76BF82FE0214884425D
:1039400009D101218804FEF763F800214FF480209B
:10395000FEF75EF822E01C48844208D10121402095
:10396000FEF736F800214020FEF732F816E017483F
:10397000844208D101218020FEF72AF8002180200E
:10398000FEF726F80AE01248844207D1012180158B
:10399000FEF71EF80021A015FEF71AF810BD000072
:1039A000000001400004004000080040000C0040FE
:1039B000001000400014004000040140004001409D
:1039C000004401400048014000180040001C004035
:1039D00000200040F0B50C4615461E46002100228E
:1039E00000230189028B038C4FF6F877394021437D
:1039F0004FF6FC473A4040F201173A434FF6DD7765
:103A00003B404FF6FF7707EA06172F433B43018100
:103A100002830384F0BD30B5024600200023002459
:103A2000158A05EA0103958905EA010413B10CB171
:103A3000012000E0002030BD70B505460C4620880E
:103A400050B92389A28861882846FFF729FEE188BA
:103A5000284600F090F925E0208804280AD123891F
:103A6000A28861882846FFF738FEE188284600F0E2
:103A70008BF917E0208808280AD12389A288618859
:103A80002846FFF752FEE188284600F08AF909E04F
:103A90002389A28861882846FFF76BFEE1882846C3
:103AA00000F088F970BD00210180418001218180F2
:103AB0000021C180018170471AB183890B43838142
:103AC00002E083898B4383817047000070B5002436
:103AD00000220023058C4FF6FE7635400584028CCB
:103AE0008388048B4FF68F752C40B51E2C400D88B3
:103AF0002C43751E2A408D892A434D882A43104D38
:103B0000A84202D00F4DA84213D14FF6F7752A40B4
:103B1000CD892A434FF6FB752A408D882A434FF6FC
:103B2000FF652B404FF6FF552B400D8A2B434D8AE6
:103B30002B43838004838D684563028470BD00003D
:103B400000000140000401400A460021018B4FF6AD
:103B5000F7731940114301837047000070B50024CA
:103B600000220023058C4FF6EF7635400584028C49
:103B70008388048B48F6FF752C404FF6FF452C4098
:103B80000D884FF6FF7606EA05252C434FF6DF75C4
:103B90002A408D8906EA05152A434D8806EA05154F
:103BA0002A43154DA84202D0144DA8421DD14FF60C
:103BB0007F752A40CD894FF6FF7606EA05152A4320
:103BC0004FF6BF752A408D8806EA05152A434FF641
:103BD000FF352B404FF2FF752B400D8A06EA850515
:103BE0002B434D8A06EA85052B43838004838D6829
:103BF0008563028470BD00000000014000040140A4
:103C00000A460021018B4FF2FF7319404FF6FF73F4
:103C100003EA0223194301837047000070B50024B2
:103C200000220023058C4FF6FF6635400584028C88
:103C30008388848B4FF68F752C404FF6FC752C4093
:103C40000D882C434FF6FF552A408D894FF6FF769D
:103C500006EA05252A434D8806EA05252A43154D1F
:103C6000A84202D0144DA8421DD14FF2FF752A4040
:103C7000CD894FF6FF7606EA05252A434FF6FF3534
:103C80002A408D8806EA05252A434EF6FF752B400B
:103C90004DF6FF752B400D8A06EA05152B434D8A1C
:103CA00006EA05152B43838084838D68C5630284EF
:103CB00070BD000000000140000401400A460021E0
:103CC000818B4FF6F77319401143818370470000D1
:103CD00070B5002200230024058C4EF6FF76354097
:103CE0000584038C8488828B48F6FF752A404FF642
:103CF000FF452A400D884FF6FF7606EA05252A4340
:103D00004DF6FF752B408D8906EA05352B434D880E
:103D100006EA05352B430A4DA84202D0094DA842B8
:103D200008D14BF6FF752C400D8A4FF6FF7606EA58
:103D300085152C43848082838D680564038470BD5F
:103D400000000140000401400A460021818B4FF22F
:103D5000FF7319404FF6FF7303EA0223194381836F
:103D600070474163704781637047C1637047016466
:103D7000704741627047028B4FF6F3731A4002831B
:103D8000028B0A4302837047028B4FF2FF331A40C3
:103D90000283028B4FF6FF7303EA01231A43028367
:103DA0007047828B4FF6F3731A408283828B0A43EB
:103DB00082837047828B4FF2FF331A408283828B5B
:103DC0004FF6FF7303EA01231A4382837047000012
:103DD00000220288184B98420ED0184B98420BD004
:103DE000B0F1804F08D0164B984205D0154B984241
:103DF00002D0154B984204D14FF68F731A404B886E
:103E00001A43124B984207D0114B984204D04FF6F8
:103E1000FF431A400B891A4302804B68C3620B8828
:103E20000385054B984202D0044B984201D18B7A0E
:103E30000386012383827047000001400004014093
:103E40000004004000080040000C0040001000404A
:103E5000001400404FF0FF314160002101800181DA
:103E6000418081727047000010B540F225513B48F7
:103E700000F0A2F8002870D0384800F057F9C4B21A
:103E800037480078032823DA3548007838B9AA2C57
:103E90005DD13448047001203149087057E0304842
:103EA000007801280BD1552C05D12E4844700220F2
:103EB0002B4908704BE000202949087047E0294849
:103EC0008470032026490870601E274908703EE070
:103ED00024488078401E2249097888420EDD214816
:103EE0001F49097844541E480078401C1C4908703A
:103EF0001D48007820441C49087028E0002018491B
:103F0000087019480078844221D1012017490870AF
:103F10001448C07850281AD11248407911490979BB
:103F200040EA012000B21249C8800E48C0790D490C
:103F3000897940EA012000B20D4908810948407A98
:103F40000849097A40EA012000B209494881012262
:103F500040F22551014800F059F810BD0010014011
:103F60004D000020D00000204E0000204C0000201A
:103F70006800002001F40072B2F5007F00D100BF9C
:103F8000CA430280704721B1828942F40052828183
:103F900004E082894DF6FF731A4082817047024621
:103FA0000020B1F5007F00D100BF13880B400BB19A
:103FB000012000E00020704770B502460024002375
:103FC0000025002040F66A16B14200D100BFC1F3BF
:103FD000421501F01F03012606FA03F3012D02D159
:103FE0009689334006E0022D02D1168A334001E063
:103FF000968A33400C12012606FA04F416883440DF
:1040000013B10CB1012000E0002070BDF0B50346F3
:10401000002400260025002040F66A17B94200D18E
:1040200000BF1846C1F3421401F01F06012707FA2A
:1040300006F5012C01D10C3004E0022C01D1103026
:1040400000E014301AB107682F43076002E00768E8
:10405000AF430760F0BD00002DE9FF4705460E465F
:104060000024A14600BFA046B08900B100BF2C8A41
:1040700024F44054F08804432C82AC8941F20C6053
:104080008443B08831890843718908430443AC8173
:10409000AC8A24F44074B0890443AC826846FDF7CE
:1040A000C7FC2048854202D01F48854202D1DDF876
:1040B0000C9001E0DDF80890A88900F4004040B1C0
:1040C00009EBC90000EB091031684900B0FBF1F7BA
:1040D00007E009EBC90000EB091031688900B0FB6B
:1040E000F1F76420B7FBF0F004012009642101FB23
:1040F0001078A88900F4004040B1322000EBC800DD
:10410000B0FBF1F000F00700044308E0322000EBC0
:1041100008106421B0FBF1F000F00F0004432C8183
:10412000BDE8FF8700100140001401400146888867
:10413000C0F308007047C1F308028280704700BFD7
:10414000FEE703B401984100009850EAC12018BF6F
:1041500004204A0D18BF40F0010040F2FF72B2EB9C
:10416000515F08BF40F00200012808BF052002B0DF
:10417000704700000000000070B59B482DED020B59
:104180002DED068B079D25F00044A04218DC9748D2
:10419000844202DC0AD1069840B19DED060BBDECCD
:1041A000068B02B0BDE8704000F0D2BD002DCCBF40
:1041B0009FED8F0B9FED900BBDEC068B02B070BD99
:1041C0008F48A04215DD8F48A042D8BF4FF0FF3482
:1041D00058DD9DED060B51EC100BFFF7B2FF0428E4
:1041E00008BF00F0D1FD9DED060BBDEC068B02B0C3
:1041F00070BD9DED060B51EC100B00F0EBFDCDE911
:10420000060181489FED828BA0423CDD8248A0429E
:104210001FDD00249FED82AB9DED060B53EC1A2BA6
:1042200051EC100BFBF7E0FF9DED060B41EC190B79
:1042300053EC1A2B51EC100BFCF77DF853EC182BB8
:10424000FCF773F853EC192BFCF7E7F8CDE90601FE
:1042500049E09DED060B012453EC182B51EC100B9B
:10426000FBF7C2FF9DED060B41EC190B53EC182B2D
:1042700051EC100BFCF759F853EC192BFCF7CDF867
:10428000CDE906012FE06848A0421FDD02249FED22
:10429000689B9DED060B53EC192B51EC100BFCF7B2
:1042A0004AF853EC182BFBF79FFF9DED060B41ECF2
:1042B000180B53EC192B51EC100BFCF736F853ECA0
:1042C000182BFCF7AAF8CDE906010CE09DED060BD2
:1042D000032453EC102B9FED580B51EC100BFCF703
:1042E0009CF8CDE906019DED060B53EC102B51EC2B
:1042F000100BFCF720F841EC180B53EC182BFCF7D3
:104300001AF841EC190B4E480621B0EE490AF0EEBE
:10431000690A784400F0F8FA53EC182B51EC100BB2
:10432000FCF709F841EC180B4648B0EE490AF0EEEC
:10433000690A0521784400F0E7FA53EC192B51EC97
:10434000100BFBF7F8FF41EC100B51EC180B53EC82
:10435000102B002C0EDAFBF747FF9DED061B53ECEC
:10436000112BFBF7E8FF9DED061B53EC112BFBF720
:10437000DFFF35E0FBF738FF9DED061B53EC112BFB
:10438000FBF7D9FF41EC100B2F48784400EBC40039
:1043900090ED001B51EC100B53EC112BFBF7C5FFFC
:1043A0009DED061B53EC112BFBF7BFFF41EC100BEF
:1043B0002648784400EBC40090ED001B51EC100B34
:1043C00053EC112BFBF7B4FF41EC100B002DA2BFF7
:1043D000BDEC068B02B070BD51EC100B81F00041BA
:1043E00041EC100B01E70000000010440000F07FDA
:1043F000182D4454FB21F93F182D4454FB21F9BFDB
:104400000000DC3F0000203E0000F33F0000000001
:10441000000000000000F03F0000E63F0000000048
:104420000000000000000040008003400000000089
:10443000000000000000F83F000000000000F0BF96
:10444000CA0B0000800B00000A0B0000C20A00002B
:1044500010B51D499FED1A1B2DED020B84B0059878
:1044600020F000408842DCBF01209DED040B21DDDF
:104470001649884209D1049840B94FF0010000F074
:10448000A3FC00F071FC06B010BD05DB9DED040B34
:1044900000F05EFC06B010BD68469DED040B00F018
:1044A00017F800F001000121A1EB40009DED021B77
:1044B0009DED000B00F0A4FA06B010BD0000000056
:1044C0000000000000000000FB21E93F0000F07F39
:1044D0002DE9F14F04462DED020B2DED088B8AB02E
:1044E0009FEDE70B80ED020B139EE74826F0004599
:1044F00085420ADC9DED120B002084ED000B0AB012
:10450000BDEC088B03B0BDE8F08FE0489FEDE0AB59
:104510009FEDE1BBA84247DDE14F9FEDE39B9FED9F
:10452000E48B9DED120B53EC1A2B51EC100B002E6B
:104530001CDDFBF7FAFE41EC100BBD4208D053EC3A
:104540001B2B51EC100BFBF7F0FEC4E900010BE054
:1045500053EC192B51EC100BFBF7E7FE53EC182B27
:10456000FBF7E3FEC4E900010120C8E7FBF73CFECE
:1045700041EC100BBD4208D053EC1B2B51EC100B3F
:10458000FBF732FEC4E900010BE053EC192B51ECB0
:10459000100BFBF729FE53EC182BFBF725FEC4E9A3
:1045A00000014FF0FF30AAE7C348A84279DB9DED38
:1045B000120B51EC100B00F00DFC41EC180B9FEDB1
:1045C000C00B53EC102BFBF7B6FE9FEDBF1B53EC5B
:1045D000112BFBF709FEFBF7A0FF0746FBF78CFF4B
:1045E00041EC190B53EC1A2BFBF7A5FE53EC182BDF
:1045F000FBF79EFE41EC180B53EC1B2B51EC190BF7
:10460000FBF799FEDFF8C8A241EC100B4FEA1558F2
:104610000125FA4453EC102B51EC180BFBF785FEE7
:10462000032DC4E900013DD0C1F30A5005EB45114B
:10463000A8EB00001139814234DA0AEB051BB0EE19
:1046400048AA9BED000BF0EE68AA53EC102B51EC3E
:10465000190BFBF770FE41EC1B0B51EC1A0B53ECE2
:104660001B2BFBF762FE41EC180B51EC1A0B53ECC1
:10467000182BFBF75AFE53EC1B2BFBF756FE9BED5A
:10468000020B41EC1A0B53EC102B51EC190BFBF7FE
:1046900052FE53EC1A2BFBF748FE41EC100B6D1C3D
:1046A000B8E70EE0002EA8BF3846BFF628AF94ED5D
:1046B000000B51EC100B81F00041C4E9000178427D
:1046C0001DE7C6F3130040F4801EC6F30A50A0F2A3
:1046D000F530471100F01F05C5F12000DDF848B0A6
:1046E00008900020069007900520EC467949002D9F
:1046F00007EB0002794408BF51F8221009D051F8A5
:10470000223001EB8201AB404A68089922FA01F19C
:104710001943A1FB0E26A1FB0B131A449A4234BF86
:104720000123002303EB06080CEB8003D3E901A669
:104730000E448E4234BF0121002192448A4411B1BB
:10474000924502D903E0924501D2012100E0002107
:10475000C3E901A641444CF82010011EA0F101005C
:10476000C4DC029800F10050850F0298DDE9036770
:104770008000DDF81480FBF7BFFE41EC1A0B3046D9
:10478000FBF7F0FF9FED541B53EC112BFBF7D3FD10
:1047900041EC1B0B3846FBF7E5FF9FED511B53EC3B
:1047A000112BFBF7C8FD41EC180B4046FBF7DAFF75
:1047B0009FED4D1B53EC112BFBF7BDFD41EC190B8D
:1047C00051EC180B53EC192BFBF70EFD53EC1B2B84
:1047D000FBF70AFD53EC1A2BFBF706FDCDE90801A8
:1047E000002008909DED080B53EC1A2B51EC100B98
:1047F000FBF79BFD53EC1B2BFBF797FD53EC182BA2
:10480000FBF793FD53EC192BFBF792FD9FED381B43
:1048100053EC112BFBF78FFD9FED370B41EC180B81
:1048200053EC102B9DED080B51EC100BFBF783FDA7
:1048300053EC182BFBF7D8FC9FED310B41EC180B18
:1048400053EC102B9DED080B51EC100BFBF773FD97
:1048500053EC182BFBF7C8FC41EC100B139810F02D
:10486000004F06D06D4251EC100B81F0004141EC3D
:10487000100B284684ED000B41E60000000000000C
:104880000000000000000000FB21E93F7CD902404D
:1048900000004054FB21F93F3163621A61B4D03DFE
:1048A000FB21F93F000000000000601A61B4D03D18
:1048B0007370032E8A19A33BFB21394100000000CD
:1048C00083C8C96D305FE43F000000000000E03F96
:1048D000FA08000048080000000000000000103E38
:1048E000000000000000103C000000000000103A32
:1048F000182D4454FB21F93D3326A611460B113CDB
:1049000000000054FB21F93D70B504462DED028BEB
:104910004D1E00EBC500B0EE408AF0EE608A90EDCF
:10492000000B35F0060017D053EC182B51EC100B90
:10493000FBF701FD41EC100B6D1E04EBC50090ED83
:10494000001B51EC100B53EC112BFBF74DFC41EC11
:10495000100B35F00600E7D1022D36D0042D1CD007
:10496000062D1CBFBDEC028B70BD53EC182B51EC17
:10497000100BFBF7E0FC94ED0A1B53EC112BFBF73B
:1049800033FC53EC182BFBF7D6FC94ED081B53ECCF
:10499000112BFBF729FC41EC100B53EC182B51ECBD
:1049A000100BFBF7C8FC94ED061B53EC112BFBF727
:1049B0001BFC53EC182BFBF7BEFC94ED040B53ECE3
:1049C000102BFBF711FC41EC100B53EC182B51ECA6
:1049D000100BFBF7B0FC94ED021B53EC112BFBF713
:1049E00003FC53EC182BFBF7A6FC94ED001B53ECD7
:1049F000112BFBF7F9FBBDEC028B41EC100B70BDEA
:104A0000F1B506462DED040BBD482DED0C8B8AB09B
:104A1000B0EE418AF0EE618A179D25F000449FEDCB
:104A2000BABB9FEDBBCB844208DA9DED160B51EC6F
:104A3000100BFBF772FD002800F0E980B64FA7428B
:104A400031DC002D0DDA9DED160B51EC100B81F0D1
:104A50000041CDE9160151EC180B81F0004141EC09
:104A6000180B9FEDAF0B53EC102B9DED160B51EC7B
:104A7000100BFBF75DFC53EC182B9FEDAB0BCDE956
:104A8000040151EC100BFBF750FC41EC100B53EC04
:104A9000102B9DED040B51EC100BFBF7A5FB9FEDCC
:104AA000A48BCDE916019DED160B53EC102B51ECA8
:104AB000100BFBF740FCCDE904019DED040B53EC1A
:104AC000102B51EC100BFBF736FC41EC190B9A48FC
:104AD0000621B0EE490AF0EE690A7844FFF714FFA8
:104AE0009648B0EE40DAF0EE60DAB0EE490AF0EE49
:104AF000690A06217844FFF707FF9DED041B51EC7E
:104B0000100B53EC112BFBF716FC9DED040B41EC45
:104B10001A0B53EC102B9DED160B51EC100BFBF701
:104B20000AFC41EC190B53EC1A2B51EC1D0BFBF753
:104B30005BFB53EC192BFBF7FEFB53EC182BFBF73D
:104B400053FB9DED041B53EC112BFBF7F4FB53ECD3
:104B5000182BFBF749FB41EC180B9FED790B51EC3F
:104B6000190B53EC102BFBF7E6FB53EC182BFBF760
:104B70003BFB41EC190B9DED160B53EC192B51EC43
:104B8000100BFBF731FB41EC180BA74269DC3046F8
:104B9000FBF7B2FC41EC1A0B51EC180B53EC1A2B3F
:104BA000FBF722FB41EC1B0B53EC182B51EC180BC1
:104BB000FBF7C1FB53EC1B2BFBF72FFC53EC192B22
:104BC000FBF7B3FB9DED161B53EC112BFBF7B0FB72
:104BD0009FED5D1B53EC112BFBF7ADFB53EC1A2B38
:104BE000FBF7A6FB41EC180B022000EAA570C0F110
:104BF0000100FBF781FC53EC182BFBF79CFB00BF7B
:104C000041EC100B0AB0BDEC0C8B05B0F0BD711C73
:104C10001698214308430CD09DED160B012E1CBFA6
:104C200053EC102B51EC1C0B10D000BFFBF7F5FB25
:104C3000E6E79DED160B51EC100B00F0CBF841ECC4
:104C4000100B51EC1B0B53EC102BEFE751EC100B3E
:104C5000FFF777FA042808BF00F096F89DED160BD1
:104C6000D0E7012E04BFB0EE480AF0EE680AC9D0C2
:104C70008DED048B002404949DED040B53EC102B5C
:104C80009DED160B51EC100BFBF752FB53EC192B5F
:104C9000FBF74EFB41EC190B53EC182B51EC1C0BA2
:104CA000FBF7BBFB41EC180B8DED008B00949DEDE9
:104CB000040B53EC102B9DED000B51EC100BFBF78C
:104CC0003AFB53EC1B2BFBF78FFA9DED000B41ECED
:104CD0001A0B53EC192B51EC100BFBF72CFB53EC7C
:104CE0001A2BFBF781FA53EC182BFBF724FB9DEDF5
:104CF000001B53EC112BFBF777FA81E70000000053
:104D00000000303E00000000000000000000F03F06
:104D1000000000000000F0BF2894E53F0000000004
:104D2000182D4454FB21E93F075C143326A6813C2F
:104D30000000000000000000FA0400001005000060
:104D4000635555555555D53F000000000000004003
:104D500010B553EC102B51EC100BFBF745FA41EC5E
:104D6000100B10BD000000009FED050B10B553ECBB
:104D7000102B51EC100BFBF750FB41EC100B10BD4E
:104D800000000000000000009FED050B10B553EC83
:104D9000102B51EC100BFBF7CEFA41EC100B10BDB1
:104DA000000000000000001002E008C8121F08C147
:104DB000002AFAD170477047002001E001C1121F9C
:104DC000002AFBD1704700000149086070470000CD
:104DD0006000002082B0CDE9000121F00040019088
:104DE0009DED000B02B051EC100B70474FF4A0602A
:104DF000FCF78AFDFCF774F9FCF7ECF9FBF7D4FE3D
:104E0000FBF7A2FFFBF7DAFCFBF7A6FEFBF7B8FC0B
:104E10004FF46130FCF714FCFBF700FDFBF770FD6D
:104E2000FBF7D4FDFBF738FEFCF798F844F620605A
:104E3000FCF7D4FB0120FCF7C3FB14E0FCF7B4FB48
:104E400088B1FEF769F9FCF711F9FEF797F910211F
:104E50000548FCF705FDC0F10100C4B2224610214F
:104E60000148FCF70AFDE9E7000C0240014200009E
:104E700000000000000000004FBB610567ACDD3F93
:104E8000182D4454FB21E93F9BF681D20B73EF3F71
:104E9000182D4454FB21F93FE2652F227F2B7A3CE9
:104EA000075C143326A6813CBDCBF07A8807703CA2
:104EB000075C143326A6913CC4EB98999999C9BF15
:104EC000711623FEC671BCBF6D9A74AFF2B0B3BF4A
:104ED0009AFDDE522DDEADBF2F6C6A2C44B4A2BF0A
:104EE0000D5555555555D53FFF8300922449C23F76
:104EF0006E204CC5CD45B73F513DD0A0660DB13FAA
:104F0000EB0D76244B7BA93F11DA22E33AAD903FBB
:104F100000004054FB21F93F3163621A61B4D03D77
:104F20000000601A61B4D03D7370032E8A19A33B50
:104F30000000002E8A19A33BC14920259A837B39A2
:104F400000000000000000006E83F9A22915444E05
:104F5000D15727FCC0DD34F5999562DB4190433C85
:104F6000AB6351FE61C5BBDE3A6E24B7E0D24D4261
:104F7000EA2E49061C92D1091CEB1DFE3EA729B161
:104F8000F53582E88444BB2E26709CE9417E5FB4EF
:104F900039D69139F43953838B5F849C3B28F9BD12
:104FA000FF97F81F0F9805DE8B112FEF1F6D0A5A20
:104FB000CF7E366DB709CB27663F464F2DEA5F9E01
:104FC000C7BA27757BF1E5EBF739073DEA92528ABC
:104FD000B15FFB6B085D8D1F7AFE10111111C13F8F
:104FE00037D60684F464963F280356C9226D6D3F78
:104FF0000165F2F2D844433FA69237A0887E143F61
:10500000735360DBCB75F3BEFE41B31BBAA1AB3F5C
:1050100093846EE9E326823F1583E0FEC8DB573FA9
:1050200068108D1AF726303FE9A7F0320FB8123F0B
:10503000D47ABF74702AFB3E58500008000000204C
:1050400064000000A84D0008BC5000086400002067
:10505000CC040000B84D000800000000000004006F
:105060002003E8030201000000000000000000002F
:105070000000000000000000000000000000000030
:105080000000000000000000000000000000000020
:105090000000000000000000000000000000000010
:1050A00000000000000000000000000001020304F6
:0C50B000010203040607080900000000CC
:040000050800018965
:00000001FF
